:020000040800F2
:100000000080012059030008D5020008DD02000825
:10001000E5020008ED020008F502000800000000FB
:10002000000000000000000000000000FD020008C9
:100030000B03000800000000190300082703000854
:10004000A9030008A9030008A9030008A9030008E0
:10005000A9030008A9030008A9030008A9030008D0
:10006000A9030008A9030008A9030008A9030008C0
:10007000A9030008A9030008A9030008A9030008B0
:10008000A9030008A9030008A90300080000000054
:10009000000000000000000000000000A9030008AC
:1000A000A9030008A9030008A9030008A903000880
:1000B000A9030008A9030008A9030008A903000870
:1000C000A9030008A9030008A9030008A903000860
:1000D000A9030008A9030008A90300080000000004
:1000E000A9030008A9030008A903000800000000F4
:1000F000000000000000000000000000A90300084C
:1001000000000000A9030008A9030008A9030008D3
:1001100000000000000000000000000000000000DF
:10012000A9030008A9030008A9030008A9030008FF
:10013000A90300080000000000000000000000000B
:10014000000000000000000000000000A9030008FB
:10015000A9030008A9030008A9030008A9030008CF
:10016000A9030008A9030008000000000000000027
:10017000000000000000000000000000000000007F
:1001800000000000A90300080000000000000000BB
:04019000A9030008B7
:1001940010B5054C237833B9044B13B10448AFF3BD
:1001A40000800123237010BD040000200000000023
:1001B400B004000808B5034B1BB103490348AFF36F
:1001C400008008BD0000000008000020B004000802
:1001D40080B582B000AF03463960FB71FB79002B18
:1001E40002D0012B04D007E03B68184600F008F861
:1001F400386800F029F800BF00BF0837BD4680BD4D
:1002040080B582B000AF78600B21054800F010F98A
:100214004FF47A7000F0E8F800BF0837BD4680BD9F
:100224000008024080B483B000AF786002E07B68CD
:10023400013B7B607B68002BF9D100BF00BF0C370A
:10024400BD465DF8047B704780B582B000AF78602E
:10025400134B1B68124A43F004031360114B1B68D1
:10026400104A43F4AA4343F0550313600E4B002293
:100274001A600E4B00221A600D4B00221A600D4BBF
:100284004FF6FF721A607B681846FFF7CBFF094BE5
:1002940000221A607B681846FFF7C4FF00BFEEE730
:1002A40030380240000802400408024008080240B6
:1002B4000C0802401408024080B500AF0349012035
:1002C400FFF786FF0023184680BD00BFC0C62D007F
:1002D40080B400AF00BFFDE780B400AF00BFFDE70E
:1002E40080B400AF00BFFDE780B400AF00BFFDE7FE
:1002F40080B400AF00BFFDE780B400AF00BFBD46CF
:100304005DF8047B704780B400AF00BFBD465DF864
:10031400047B704780B400AF00BFBD465DF8047B2A
:10032400704780B500AF00F03FF800BF80BD00000B
:1003340080B400AF064BD3F88830054A43F4700309
:10034400C2F8883000BFBD465DF8047B704700BF2B
:1003540000ED00E0DFF834D0FFF7EAFF0C480D4968
:100364000D4A002302E0D458C4500433C4188C420C
:10037400F9D30A4A0A4C002301E013600432A24272
:10038400FBD300F06FF8FFF797FF70470080012060
:100394000000002004000020D00400080400002015
:1003A40024000020FEE7000080B400AF064B1B7859
:1003B4001A46064B1B681344044A136000BFBD462B
:1003C4005DF8047B704700BF00000020200000207F
:1003D40080B400AF034B1B681846BD465DF8047B30
:1003E400704700BF2000002080B584B000AF786063
:1003F400FFF7EEFFB8607B68FB60FB68B3F1FF3F7B
:1004040005D00A4B1B781A46FB681344FB6000BFF7
:10041400FFF7DEFF0246BB68D31AFA689A42F7D8A0
:1004240000BF00BF1037BD4680BD00BF00000020E4
:1004340080B485B000AF78600B467B807B685B69D5
:10044400FB607A88FB6813401A04FB68D9437B88F5
:100454000B401A437B689A6100BF1437BD465DF8B0
:10046400047B704770B50D4B0D4D5B1B9C10002633
:10047400A64209D100F01AF80A4D0B4B5B1B9C10E5
:100484000026A64205D170BD55F8043B98470136B5
:10049400EEE755F8043B98470136F2E7C804000834
:1004A400C8040008C8040008CC040008F8B500BF5C
:1004B400F8BC08BC9E467047F8B500BFF8BC08BC41
:0404C4009E46704799
:0404C800B90100086E
:0404CC00950100088E
:0404D0000100000027
:040000050800035993
:00000001FF
